:100000000C9462000C948A000C948A000C948A0070
:100010000C948A000C948A000C948A000C948A0038
:100020000C948A000C948A000C948A000C948A0028
:100030000C948A000C948A000C948A000C948A0018
:100040000C947F040C948A000C948A000C948A000F
:100050000C948A000C948A000C948A000C948A00F8
:100060000C948A000C948A00000000080002010031
:100070000003040700000000000000000102040863
:100080001020408001020408102001020408102002
:10009000040404040404040402020202020203032E
:1000A00003030303000000002300260029000000D2
:1000B0000000250028002B0000000000240027007D
:1000C0002A003E0211241FBECFEFD8E0DEBFCDBF15
:1000D00011E0A0E0B1E0E2EDFBE002C005900D927E
:1000E000A030B107D9F721E0A0E0B1E001C01D9236
:1000F000A734B207E1F710E0C4ECD0E004C02297C7
:10010000FE010E94E305C23CD107C9F70E94D20557
:100110000C94E7050C9400000E944E0261E08DE013
:100120000E94390560E08EE00C9439058EE090E085
:100130000E94B3029093010180930001809102011B
:10014000909103010E94BA028DE090E00C94D802D5
:10015000AF92BF92CF92DF92EF92FF920F931F93D5
:100160000E94C90400913601109137012091380195
:1001700030913901065F1F4F2F4F3F4F60177107B6
:100180008207930708F471C10E94C9046093360185
:1001900070933701809338019093390181E090E0AA
:1001A00090933B0180933A010E94960080913A011E
:1001B00090913B0190933D0180933C0182E391E05B
:1001C0000E94150480910001909101010E94CB02D0
:1001D00080E291E00E94DE0380913A0190913B0120
:1001E00090933D0180933C0182E391E00E941504CD
:1001F00080910001909101010E94CB028EE191E07B
:100200000E94910264EF71E08AE191E00E944D0347
:1002100088E191E00E94E90280913A0190913B01CE
:1002200090933D0180933C0182E391E00E9415048C
:1002300080910001909101010E94CB0280911801F0
:10024000909119010E94BF0283E0A82EB12CC090AA
:100250002001D0902101E0902201F0902301009133
:100260002401109125012091260130912701409110
:1002700028015091290160912A0170912B018091F0
:100280002C0190912D010E949E0380913A01909142
:100290003B0190933D0180933C0182E391E00E94F9
:1002A000150480910E0190910F010E94BF0264E637
:1002B00070E084E191E00E944D0364E670E080E12B
:1002C00091E00E9407038EE091E00E94F702809186
:1002D0003A0190913B0190933D0180933C0182E370
:1002E00091E00E94150480910401909105010E9403
:1002F000BF0264E670E08AE091E00E94070368EEC6
:1003000073E086E091E00E944D0384E091E00E945A
:10031000F70280913A0190913B0190933D018093C7
:100320003C0182E391E00E94150482E391E00E9487
:10033000150482E391E00E942E0482E391E00E9482
:10034000150440E050E060E070E080E291E00E943F
:100350008C020E94BF0280910E0190910F010E94B9
:10036000BF028EE291E00E94150482E391E00E94B8
:100370002E0482E391E00E94150440E050E061E029
:1003800070E080E291E00E948C020E94BF028091A6
:100390000401909105010E94BF028EE291E00E944B
:1003A000150482E391E00E942E0482E391E00E9412
:1003B000150440E050E062E070E080E291E00E94CD
:1003C0008C020E94BF0280910401909105010E945D
:1003D000CB028EE291E00E94150482E391E00E943C
:1003E0002E0482E391E00E94150440E050E063E0B7
:1003F00070E080E291E00E948C020E94BF028EE2D7
:1004000091E00E94150482E391E00E942E0482E3B1
:1004100091E00E94150440E050E064E070E080E26A
:1004200091E00E948C020E94BF0282E391E00E9450
:100430004C048EE291E00E945A048EE291E00E9408
:100440005A048EE291E00E945A048EE291E00E94EA
:100450005A0482E091E01F910F91FF90EF90DF909E
:10046000CF90BF90AF900C94E9021F910F91FF9035
:10047000EF90DF90CF90BF90AF90089582E391E02E
:100480000E940F048EE291E00E940F0440E050E0D1
:1004900064E070E080E291E00C947B0308954230C8
:1004A0005105E1F038F44115510561F04130510535
:1004B00079F02FC044305105E9F0B0F045305105D6
:1004C000F9F027C031E020E086179707F1F41EC04D
:1004D00031E020E086179707C9F417C031E020E02B
:1004E0006817790798F011C031E020E08617970768
:1004F00068F00BC031E020E08617970738F405C09C
:1005000031E020E06817790708F430E0832F922F5C
:10051000089580E090E00895FC01848195810C9419
:100520004F02FC0180913C0190913D01208131817D
:100530008217930779F08130910519F491838083B4
:1005400009C01182108281E090E090933D01809378
:100550003C0104C010923D0110923C0180913C018D
:1005600090913D0108950E94A80590933D018093CC
:100570003C01089590933D0180933C0108952091A2
:100580003C0130913D012823392330933D012093D4
:100590003C01C90108958095909520913C013091CE
:1005A0003D018223932390933D0180933C01089564
:1005B00020913C0130913D012130310511F461E081
:1005C00001C060E00E94720580913C0190913D0164
:1005D000089520913C0130913D01FC01213031050D
:1005E00019F4318320830895118210820895209197
:1005F0003C0130913D01232B31F421E030E0FC013E
:10060000318320830895FC011182108208950F9395
:100610001F93CF93DF938C01EB0180913C0190916C
:100620003D01F801892B29F4108211821282138274
:100630002BC080819181A281B381892B8A2B8B2B46
:1006400041F40E94C904F80160837183828393831B
:1006500017C00E94C904F8010081118122813381F1
:100660000C0F1D1F211D311D0617170728073907FD
:1006700038F481E090E090933D0180933C0104C008
:1006800010923D0110923C0180913C0190913D01FE
:10069000DF91CF911F910F9108959B01E0913C0153
:1006A000F0913D0140913601509137016091380140
:1006B00070913901EF2BA9F4FC0180819181A28115
:1006C000B381820F931FA11DB11D84179507A60743
:1006D000B70760F081E090E090933D0180933C018A
:1006E00005C0FC01408351836283738380913C0188
:1006F00090913D010895FC0171836083538342838F
:1007000055834483138612861586148617821682B3
:10071000118610860895FC0180913C0190913D0165
:100720008130910551F47583648313861286958711
:10073000848717821682118610860895AF92BF9221
:10074000CF92DF92EF92FF920F931F93CF93DF939D
:10075000CDB7DEB72E970FB6F894DEBF0FBECDBF74
:10076000C982DA82EB82FC820D831E832F83388755
:1007700049875A876B877C878D879E87B5018091D3
:100780003C0190913D01019721F4CE0101960E9418
:100790008B0380913C0190913D012E960FB6F89409
:1007A000DEBF0FBECDBFDF91CF911F910F91FF90A4
:1007B000EF90DF90CF90BF90AF900895FC0124811F
:1007C0003581808191818217930740F140913C01EE
:1007D00050913D01452B19F41782168208954681E8
:1007E0005781452BD9F441E050E0578346832F5F72
:1007F0003F4F358324832817390729F453874287CD
:100800001586148608951386128615861486821717
:10081000930720F482819381958384830895FC015A
:1008200010821182128213820895FC01408151814D
:10083000628173817695679557954795408351837B
:100840006283738380913C0190913D01019729F46B
:100850007068408351836283738308950F931F935D
:10086000FC0140815181628173818A019B010027D3
:1008700037FD039511272227332710933D0100935D
:100880003C01440F551F661F771F408351836283CD
:1008900073831F910F910895FC0140815181628102
:1008A0007381440F551F661F771F408351836283F6
:1008B000738308950F931F93FC01408151816281DE
:1008C00073818A019B01002737FD03951127222799
:1008D0003327E0913C01F0913D01E02BF12BF093A7
:1008E0003D01E0933C01440F551F661F771FFC013B
:1008F00040835183628373831F910F9108951F92E8
:100900000F920FB60F9211242F933F938F939F93C3
:10091000AF93BF9380913F0190914001A09141011D
:10092000B091420130913E0123E0230F2D3720F496
:100930000196A11DB11D05C026E8230F0296A11D39
:10094000B11D20933E0180933F0190934001A093FD
:100950004101B09342018091430190914401A091E3
:100960004501B09146010196A11DB11D809343013F
:1009700090934401A0934501B0934601BF91AF917C
:100980009F918F913F912F910F900FBE0F901F90CD
:1009900018952FB7F89460913F01709140018091B4
:1009A0004101909142012FBF0895789484B58260EF
:1009B00084BD84B5816084BD85B5826085BD85B503
:1009C000816085BDEEE6F0E0808181608083E1E8B2
:1009D000F0E01082808182608083808181608083EA
:1009E000E0E8F0E0808181608083E1EBF0E08081ED
:1009F00084608083E0EBF0E0808181608083EAE7BF
:100A0000F0E0808184608083808182608083808147
:100A1000816080838081806880831092C100089506
:100A2000833081F028F4813099F08230A1F008956C
:100A30008730A9F08830B9F08430D1F480918000FB
:100A40008F7D03C0809180008F7780938000089510
:100A500084B58F7702C084B58F7D84BD0895809161
:100A6000B0008F7703C08091B0008F7D8093B0007D
:100A70000895CF93DF9390E0FC01E458FF4F249159
:100A8000FC01E057FF4F8491882349F190E0880FE3
:100A9000991FFC01E854FF4FA591B49182559F4FD7
:100AA000FC01C591D4919FB7611108C0F8948C9155
:100AB000209582238C93888182230AC0623051F46E
:100AC000F8948C91322F309583238C938881822BDC
:100AD000888304C0F8948C91822B8C939FBFDF9104
:100AE000CF9108950F931F93CF93DF931F92CDB7AC
:100AF000DEB7282F30E0F901E859FF4F8491F90162
:100B0000E458FF4F1491F901E057FF4F049100237F
:100B1000C9F0882321F069830E9410056981E02FC4
:100B2000F0E0EE0FFF1FE255FF4FA591B4919FB784
:100B3000F8948C91611103C01095812301C0812B21
:100B40008C939FBF0F90DF91CF911F910F910895CC
:100B5000CF93DF93282F30E0F901E859FF4F8491BC
:100B6000F901E458FF4FD491F901E057FF4FC491C8
:100B7000CC2391F081110E941005EC2FF0E0EE0FD4
:100B8000FF1FEC55FF4FA591B4912C912D2381E0CF
:100B900090E021F480E002C080E090E0DF91CF910E
:100BA000089508950E94D5040E94D1050E948C00EA
:100BB000C0E0D0E00E94A8002097E1F30E9400006E
:100BC000F9CFEE0FFF1F0590F491E02D0994F894F2
:020BD000FFCF55
:00000001FF
